:02000000E52DEC
:0E000600033083120313FD00FD0B07280800D2
:0400140000000800E0
:0A001800032006160320061208005C
:10002200FF308316031388000A200A208312061564
:1000320006128615061603200808D7000612861136
:100042000A200A208316880183125708F00008004C
:1000520083120313061206158611570888000C2016
:02006200080094
:100064007F30831203135705F1007108D700711F05
:0E0074003E2806148610402806108614080048
:100082007F30831203135705F0007008D700061162
:100092008611BF30F0057008D70070177008D700BE
:0800A200700888000C20080022
:1000AA008312031306118611B830570488000C20F6
:0200BA0008003C
:1000BC000030831203135102031C712851087F3C3A
:1000CC00031C712800305202031C712852083F3C5B
:1000DC00031C71287228C0285108D70032205208FE
:1000EC00D700D70CD713D70CD713D70CD713552051
:1000FC005108D700412011207008D600112070083B
:10010C00D6005208D700D70CD713D70CD713D70C5F
:10011C00D71355205108D700412007305205F00065
:10012C007008D4007008F1000130F0007108031958
:10013C00A328F00D7010FF3E9D287008D4007009A4
:10014C00D500B1285508D605BD285408D604BD28BD
:10015C005408D606BD285308003A0319A82853089A
:10016C00013A0319AB285308023A0319AE28560872
:06017C00D7002920080055
:100182008030831203133F06F00080307002031D9B
:10019200CC2800303E020318D028BE01BF018030B7
:1001A200F00080303F067002031DD9283E087F3CD4
:1001B2000318DF287F30BE000030BF0080304306C6
:1001C200F00080307002031DE8280030420203185C
:1001D200EC28C201C3018030F00080304306700277
:1001E200031DF52842087F3C0318FB287F30C2001C
:1001F2000030C30080304106F00080307002031DE1
:1002020004290030400203180829C001C1018030CE
:10021200F000803041067002031D112940083F3C66
:10022200031817293F30C0000030C1008030450656
:10023200F00080307002031D2029003044020318B0
:100242002429C401C5018030F000803045067002C7
:10025200031D2D2944083F3C031833293F30C400B5
:100262000030C5003E084202F1003F08031C013E77
:100272004302F2007108C7007208C8004008440235
:10028200C9004108031C013E4502CA0080307206C3
:10029200F00080307002031D5029003071020318F3
:1002A2005F294708003CC7004808031C013EC801FB
:1002B200C802FF30CB00FF30CC0063290130CB00F5
:1002C2000030CC0080304A06F00080307002031DFE
:1002D2006C290030490203187B294908003CC900F7
:1002E2004A08031C013ECA01CA02FF30CD00FF309A
:1002F200CE007F290130CD000030CE00C70DC80DE1
:100302004710C90DCA0D49103E08D1004008D2005D
:100312004608D3005E2080304A06F000803048064E
:100322007002031D9629470849020318E32947086A
:10033200F0004808F100F10CF00CF113711BF117F9
:1003420070084902CF007108031C013E4A02D00026
:100352003F084306031DAF2942083E060319E2295E
:1003620080305006F00080307002031DBA29003040
:100372004F02031CC8294D08C0074E080318013E4E
:10038200C1074708CF02031CD0034808D0024B081C
:100392003E07F0003F080318013E4C07F1007008C9
:1003A200BE007108BF004908CF074A080318013E82
:1003B200D0077008D1004008D2004608D3005E2062
:1003C200A9292D2A4908F0004A08F100F10CF00C85
:1003D200F113711BF11770084702CF007108031C5B
:1003E200013E4802D00041084506031DFA2944088F
:1003F200400603192D2A80305006F000803070022A
:10040200031D052A00304F02031C132A4B08BE07A6
:100412004C080318013EBF074908CF02031CD00352
:100422004A08D0024D084007F00041080318013E77
:100432004E07F1007008C0007108C1004708CF07DD
:1004420048080318013ED0073E08D1007008D200C8
:0A0452004608D3005E20F4290800DC
:10045C000030831203134002031C392A40083F3C2E
:10046C00031C392A3A2A672A00303E0203183F2A15
:10047C00BE013E087F3C0318452A7F30BE00003089
:10048C003F0203184A2ABF013F087F3C0318502A39
:10049C007F30BF003E083F0203185A2A3E08C200B4
:1004AC003F08BE004208BF003E083F02031C672AFB
:1004BC003E08D1004008D2004108D3005E20BE0A9D
:0404CC005A2A0800A0
:1004D0000030831203134002031C732A40087F3C40
:1004E000031C732A742AA12A00303E020318792AB9
:1004F000BE013E083F3C03187F2A3F30BE0000305B
:100500003F020318842ABF013F083F3C03188A2A90
:100510003F30BF003E083F020318942A3E08C20045
:100520003F08BE004208BF003E083F02031CA12A4C
:100530004008D1003E08D2004108D3005E20BE0A28
:04054000942A0800F1
:0E054400831203132A088A0029088200080087
:10055200831203132B08BE002D08BF002C08C00015
:100562002F08C1002E222B08BE002D08BF002E0826
:10057200C0002F08C1002E222C08BE002E08BF008A
:100582002B08C0002F08C10068222C08BE002E08CC
:0E059200BF002D08C0002F08C100682208001D
:1005A0000030831203133006031DD82A00302F06B3
:1005B000031DE22A2B08D1002D08D2003108D300F8
:1005C0005E208C2CB601B701BA01BB012F08B40024
:1005D0003008B5002F08BC003008BD002B082D02E4
:1005E000B8002C08031C013E2E02B9002F08F000B1
:1005F0003008F100F00DF10D70107008B2007108B4
:10060000B3007008033CB2007108031C013EB30143
:10061000B3023408013EF10000300318013E3507F3
:10062000F20080303706F000803072067002031D41
:100630001B2B7108360203181F2C36082B07F000FD
:100640002C080318013E3707F1007008BE0071083E
:10065000BF0034082D07C0002E080318013E3507DF
:10066000C1007008C2007108C30034082D02C40024
:100670003508031C013E2E02C5003108C600C1200A
:100680008030F000803037067002031D492B360899
:10069000003C03186E2B36082B02F0003708031CB1
:1006A000013E2C02F1007008BE007108BF00340842
:1006B0002D07C0002E080318013E3507C100700841
:1006C000C2007108C30034082D02C4003508031CA1
:1006D000013E2E02C5003108C600C1203D08350686
:1006E000031D742B34083C060319D72B3C082D0737
:1006F000F0002E080318013E3D07F1003808F00213
:10070000031CF1033908F1027008BE007108BF0034
:100710003A082D07C0002E080318013E3B07C10010
:100720007008C2007108C3003A082D02C4003B08DB
:10073000031C013E2E02C5003108C600C1208030D6
:10074000F00080303D067002031DA82B3C08003CE1
:100750000318D32B3C082D02F0003D08031C013E7A
:100760002E02F1003808F002031CF1033908F102EF
:100770007008BE007108BF003A082D07C0002E089F
:100780000318013E3B07C1007008C2007108C30096
:100790003A082D02C4003B08031C013E2E02C5008E
:1007A0003108C600C1203408BC003508BD008030C7
:1007B0003306F00080307002031DE02B003032025F
:1007C0000318F72B3608F0003708F100F00DF10D93
:1007D0007010F00DF10D70100630F0070318F10ADB
:1007E0007008B20771080318013EB3071B2C3408C8
:1007F0003602F3003508031C013E3702F40073088B
:10080000F0007408F100F00DF10D7010F00DF10D15
:1008100070100A30F0070318F10A7008B207710867
:100820000318013EB3070130B402031CB5033608B8
:10083000BA003708BB00B60A0319B70A092B013002
:100840003602F1000030031C013E3702F20072084C
:100850003D06031D2D2C3C08710603198C2C3C0809
:100860002D07F0002E080318013E3D07F10038085F
:10087000F002031CF1033908F1027008BE00710890
:10088000BF003A082D07C0002E080318013E3B07A1
:10089000C1007008C2007108C3003A082D02C400EC
:1008A0003B08031C013E2E02C5003108C600C120D2
:1008B0008030F00080303D067002031D612C3C0842
:1008C000003C03188C2C3C082D02F0003D08031C52
:1008D000013E2E02F1003808F002031CF103390832
:1008E000F1027008BE007108BF003A082D07C00071
:1008F0002E080318013E3B07C1007008C2007108B2
:10090000C3003A082D02C4003B08031C013E2E021E
:0A091000C5003108C600C120080030
:10091A008312031306108614AD012D08073C031C2D
:10092A00A52C2D08D7005520AC012C083F3C031CF0
:10093A00A32C2B08D7002920AC0A9A2CAD0A922C9A
:10094A0086100614AD012D08073C031CBB2C2D088C
:10095A00D7005520AC012C083F3C031CB92C2B08AE
:0E096A00D7002920AC0AB02CAD0AA82C08003A
:1009780083120313A6018316861206120611861126
:1009880006108610831286128316880183120611B8
:1009980086110610861486163F3088000C20C03059
:1009A80088000C20061486103F3088000C20C030C8
:0609B80088000C2008007D
:1009BE000030831203133006031DE72C00302F0680
:1009CE00031DF12C2B08D1002D08D2003108D300C5
:1009DE005E20D82DB601B7012B082D02B8002C08C9
:1009EE00031C013E2E02B9002F08B4003008B500DA
:1009FE002F08F0003008F100F00DF10D70107008A6
:100A0E00B2007108B3007008033CB2007108031CF9
:100A1E00013EB301B3023408013EF1000030031869
:100A2E00013E3507F20080303706F0008030720646
:100A3E007002031D242D710836020318D82D3608B6
:100A4E002B07D10034082D07D2003108D3005E20C9
:100A5E0036082B07D10034082D02D2003108D300FE
:100A6E005E208030F000803037067002031D412D6D
:100A7E003608003C0318552D36082B02D1003408D9
:100A8E002D07D2003108D3005E2036082B02D1008C
:100A9E0034082D02D2003108D3005E203708350607
:100AAE00031D5B2D340836060319942D34082D07CB
:100ABE00D1003808D10236082D07D2003108D300F4
:100ACE005E2034082D02D1003808D10236082D07D9
:100ADE00D2003108D3005E208030F000803037061F
:100AEE007002031D7C2D3608003C0318942D34082B
:100AFE002D07D1003808D10236082D02D200310858
:100B0E00D3005E2034082D02D1003808D1023608F9
:100B1E002D02D2003108D3005E2080303306F00063
:100B2E0080307002031D9D2D003032020318B42D4B
:100B3E003608F0003708F100F00DF10D7010F00DD1
:100B4E00F10D70100630F0070318F10A7008B207A5
:100B5E0071080318013EB307D42D34083602F30092
:100B6E003508031C013E3702F4007308F0007408C8
:100B7E00F100F00DF10D7010F00DF10D70100A3046
:100B8E00F0070318F10A7008B20771080318013E46
:100B9E00B3070130B402031CB503B60A0319B70A32
:040BAE00122D0800FC
:100BB200A2228A110A128000840AA90A0319AA0A27
:080BC200F003031DD92D08000A
:100BCA0083120313A001A101A201A3018316031733
:100BDA0088018901860103138801BC24AB018D2495
:100BEA000330A7000030A80080302806F0008030CB
:100BFA007002031D022E01302702031C9C2F0030B5
:100C0A002806031D0A2E03302706031D9D2E803059
:100C1A00A400A50180302506F00080307002031D73
:100C2A00182E71302402031C9D2E1E30AB0000309A
:100C3A00AC002008193CAD002108031C013EAE019E
:100C4A00AE020530AF000030B0000130B100D02252
:100C5A001E30AB000030AC002330AD000030AE00D7
:100C6A000530AF000030B0000130B100D0221E3094
:100C7A00AB000030AC002D30AD000030AE000530C6
:100C8A00AF000030B0000130B100D0222830AB00F4
:100C9A000030AC001E30AD000030AE000530AF00B1
:100CAA000030B0000130B100D0222830AB00003053
:100CBA00AC002830AD000030AE000530AF00003087
:100CCA00B0000130B100D0223230AB000030AC00AD
:100CDA002330AD000030AE000530AF000030B00068
:100CEA000130B100D0225930AB000030AC002330C3
:100CFA00AD000030AE000530AF000030B00001306A
:100D0A00B100DF24A20A0319A30A22086E3CAB0031
:100D1A002030AC002408AD002530AE000130AF0011
:100D2A00A922AB018D240130A402031CA5030F2EB6
:100D3A0000302806031DA32E02302706031DD92ED4
:100D4A008030A400A50180302506F00080307002B2
:100D5A00031DB12E63302402031CD92E22086E3CD7
:100D6A00AB002030AC007130AD002530AE00013050
:100D7A00AF00A92227302402AB000030031C013E39
:100D8A002502AC002330AD000030AE000530AF00C4
:100D9A000030B0000130B100DF24AB018D240130F6
:100DAA00A402031CA503A82E00302806031DDF2E6B
:100DBA0001302706031D972F8030A400A50180303B
:100DCA002506F00080307002031DED2E7A302402D1
:100DDA00031C972FAB018D2422086E3CAB002030F8
:100DEA00AC007130AD002530AE000130AF00A92251
:100DFA003C30AB000030AC002330AD000030AE0018
:100E0A000530AF000030B0000130B100DF2462309D
:100E1A002402AB000030031C013E2502AC0020086E
:100E2A00193CAD002108031C013EAE01AE0205309B
:100E3A00AF000030B0000130B100D0221E30AB004C
:100E4A000030AC002330AD000030AE000530AF00FA
:100E5A000030B0000130B100D02262302402AB0071
:100E6A000030031C013E2502AC0020082D3EAD00D7
:100E7A0000300318013E2107AE000530AF000030F4
:100E8A00B0000130B100D0220230A0070318A10A35
:100E9A0058302402AB000030031C013E2502AC008E
:100EAA0062302402AD000030031C013E2502AE0070
:100EBA000530AF000030B0000130B100D022583008
:100ECA002402F0000030031C013E2502F1007008E4
:100EDA00AB007108AC0020087007AD007108031858
:100EEA00013E2107AE000530AF000030B0000130EE
:100EFA00B100D0223230AB000030AC002008233ED3
:100F0A00AD0000300318013E2107AE000530AF00E6
:100F1A000030B0000130B100D0220130A402031C1D
:100F2A00A503E42E0130A702031CA803F92D9C2F68
:04400E00D2230007B2
:00000001FF
